:020000040800F2
:10000000C006002045010008FB170008EF15000896
:10001000F917000877020008491B000800000000DB
:10002000000000000000000000000000FF170008B2
:100030002904000800000000FD170008011800084E
:100040005F0100085F0100085F0100085F01000810
:100050005F0100085F0100085F0100085F01000800
:100060005F0100085F0100085F0100085F010008F0
:100070005F0100085F0100085F0100085F010008E0
:100080005F0100085F0100085F0100085F010008D0
:100090005F0100085F0100085F0100085F010008C0
:1000A0005F0100085F0100085F0100085F010008B0
:1000B000651800085F0100085F0100085F01000883
:1000C0005F0100085F0100085F0100085F01000890
:1000D0005F0100085F0100083D1B00085F01000888
:1000E0005F0100085F0100085F0100085F01000870
:1000F0005F0100085F0100085F0100085F01000860
:100100005F0100085F0100085F0100085F0100084F
:100110005F0100085F0100085F0100085F0100083F
:100120005F0100085F0100085F0100085F0100082F
:10013000DFF80CD000F07EF8004800478538000852
:10014000C00600200648804706480047FEE7FEE755
:10015000FEE7FEE7FEE7FEE7FEE7FEE7FEE7FEE777
:100160006318000831010008202A04DB203A21FA34
:1001700002F00021704721FA02F3D040C2F12002C0
:10018000914008431946704740EA01039B0703D09A
:1001900009E008C9121F08C0042AFAD203E011F8C6
:1001A000013B00F8013B521EF9D27047D2B201E088
:1001B00000F8012B491EFBD270470022F6E710B56C
:1001C00013460A4604461946FFF7F0FF204610BDC5
:1001D0002DE9F05F0546002092469B46884606467C
:1001E000814640241BE02846414647462246FFF709
:1001F000BBFF53465A46C01A914110D311461846C8
:10020000224600F029F82D1A67EB01084F462246D6
:100210000120002100F020F817EB00094E41201EBC
:10022000A4F10104DFDC484631462A464346BDE8D6
:10023000F09F0000064C074D06E0E06840F0010327
:1002400094E8070098471034AC42F6D3FFF774FFE8
:10025000483C0008683C0008202A04DB203A00FAE9
:1002600002F1002070479140C2F1200320FA03F30D
:10027000194390407047FEE770B5002400F02CF859
:100280004FF40055134E04E0641CE4B2012001F069
:10029000D0FE2946304600F05FFA012803D0642CD6
:1002A00010D2002407E0642CEED30BE0641CE4B20F
:1002B000012001F0BEFE2946304600F04DFA18B18B
:1002C000642C04D3012070BD642CEFD3FAE7002026
:1002D00070BD0000000C01401FB54FF400500090AD
:1002E000002001906946024800F03AF91FBD000065
:1002F000000C01401FB54FF4005000900320039004
:10030000012001906946024800F02AF91FBD000053
:10031000000C014010B500F06DF8BDE81040FFF78B
:10032000ABBF000070B500244FF40055134E04E03D
:10033000641CE4B2012001F07CFE2946304600F046
:100340000BFA012801D1642CF2D3002404E0641CD0
:10035000E4B2012001F06DFE2946304600F0FCF9C0
:1003600008B9642CF3D3282001F063FE29463046F7
:1003700000F0F2F9002800D0012070BD000C01400F
:1003800070B5002420464006050EFFF7CBFF641C25
:100390002843E4B2082CF6D370BD00002DE9FC41DF
:1003A000064600200D4600900446019000F022F819
:1003B000FFF762FF10B10120BDE8FC814FEA0D0795
:1003C000FFF7DEFF3855641CE4B2052CF8D39DF826
:1003D00000109DF801009DF803300A189DF80200F6
:1003E00003441A449DF804309A4201D129703070B8
:1003F0000020E1E770B5FFF77DFF0A4D4FF4005490
:1004000000222146284600F0ACF9142001F0FFFD3F
:1004100001222146284600F0A4F9BDE870402820BA
:1004200001F007BE000C0140704772B6FEE7000005
:100430002DE9F05F90F821100024022903D0042157
:100440008163012485E001680A6822F00E020A60D7
:1004500001680A6822F001020A603F4E3E4FB21561
:10046000DFF8F4C0DFF8F090DFF8ECA0DFF8E8B0D8
:10047000DFF8E4E00168783F13011502ACF1640C89
:10048000A9F15009AAF13C0AABF1280BAEF1140E08
:100490004FF48018B14227D9B9420ED0614512D02D
:1004A00049451DD0514518D0594518D0714501D145
:1004B000424615E0294EB14201D1012210E0274EFB
:1004C0001436B14201D110220AE0244E2836B1423E
:1004D00006D0224A3C32914201D11A4600E02A4617
:1004E0001E49091F0A602BE0B94213D0614517D09D
:1004F000494522D051451DD059451DD0714501D1E6
:1005000042461AE0B14202D14FF0807215E0134E1C
:10051000B14201D1012210E0104E1436B14201D196
:1005200010220AE00D4E2836B14206D00B4A3C326A
:10053000914201D11A4600E02A46074980394A60B3
:10054000012180F82110002180F82010416B01B1B9
:1005500088472046BDE8F09F800002400804024022
:100560002DE9F84FDFF8C891002409F1040A0AF1D7
:10057000040B23460F270BF1040ED1E00125A54003
:1005800006EA0502AA4276D1DFF8A8C14E68A6EBBA
:100590000C0866452BD00DDC032E34D005DC36B3B9
:1005A000012E19D0022E2FD11BE0112E16D0122EA3
:1005B0002AD119E0B8F5881F19D006DCB8F5803FBC
:1005C00015D0B8F5801F1FD111E0B8F5001F0ED06F
:1005D000B8F5041F18D10AE0CB6815E0CB681B1DE5
:1005E00012E0CB6808330FE0CB680C330CE08B686B
:1005F0002BB1012B4FF0080303D0456104E0042325
:1006000002E0056100E00023FF2A01D8064601E070
:1006100000F104064FEA840501D9A5F12005D6F8BA
:10062000008007FA05FC28EA0C0803FA05F548EAF9
:100630000508C6F800804D68ED0070D53E4DAE69E6
:1006400046F00106AE61AD6924F0030605F0010530
:1006500000953A4D06EB050CDCF80850A607360F5E
:1006600007FA06F825EA0805DFF8D480404503D1EB
:100670004FF0000825E052E0DFF8C880404502D185
:100680004FF001081DE0DFF8C080404502D14FF077
:10069000020816E0DFF8B480404502D14FF00308AD
:1006A0000FE0DFF8AC80404502D14FF0040808E0CD
:1006B000DFF8A080404502D14FF0050801E04FF07F
:1006C000060808FA06F848EA0508CCF808804D68DC
:1006D000D9F80060ED034D4601D5164300E096437E
:1006E0002E604D68DAF80060AD03554601D516431B
:1006F00000E096432E604D68DBF80060ED025D4639
:1007000001D5164300E096432E604D68DEF8006088
:10071000AD02754601D5164300E096432E60641C79
:100720000A681646E2407FF429AFBDE8F88F000062
:1007300000040140000011100010024000000140C0
:1007400000080140000C014000100140001401406D
:1007500000180140001C01408068084000D00120C2
:1007600070470AB1016170470904FBE701488068DE
:10077000704700003400002002488168027811446C
:100780008160704734000020074810B5016841F0CF
:1007900010010160032000F075F8002000F006F859
:1007A00000F024F8002010BD0020024070B50D4D6F
:1007B00004464FF47A712878B1FBF0F00A490968D1
:1007C000B1FBF0F000F0FEFA48B9102C07D200227D
:1007D0002146501E00F036F800206C6070BD0120EC
:1007E00070BD000034000020400000200C4808B517
:1007F000816941F001018161816901F0010100918C
:10080000C16941F08051C161C06900F08050009021
:100810000448416821F0E06141F00071416008BD89
:100820000010024000000140002809DB00F01F0218
:10083000012191404009800000F1E020C0F8001142
:1008400070470000F0B40E4B1B680C46C3F3022344
:10085000C3F10705042D00D90425191D072901D26C
:10086000002300E0DB1E012606FA05F1491E2140A7
:1008700099409E40761E16403143F0BC01F076B997
:100880000CED00E0064900F0070208684FF6FF0390
:10089000184040EA0220034A1043086070470000F5
:1008A0000CED00E00000FA05BFF34F8F054801682A
:1008B000054A01F4E06111430160BFF34F8F00BFAF
:1008C000FDE700000CED00E00400FA052DE9F0471B
:1008D0000F46050061D0434E306800F00700B84273
:1008E00009D2306820F0070038433060306800F0EB
:1008F0000700B84251D128683B4C810712D5400708
:1009000003D5606840F4E06060602878000703D594
:10091000606840F4605060606068A96820F0F00092
:10092000084360602878C00728D06868012810D084
:100930002168022810D0890700292EDA616821F089
:10094000030101436160FFF711FF804641F28839DE
:100950000DE021688903EFE78901EDE7FFF706FF66
:10096000A0EB0801494502D90320BDE8F087606883
:10097000696800F00C00B0EB810FEFD1306800F037
:100980000700B8420BD9306820F0070038433060C8
:10099000306800F00700B84201D00120E5E7287870
:1009A000400705D56068E96820F4E06008436060AE
:1009B0002878000706D56068296920F4605040EA6D
:1009C000C100606000F038F86168084AC1F30311A3
:1009D000515CC8400649086006480068FFF7E6FE1B
:1009E0000020C2E70020024000100240303C000816
:1009F000400000203800002004480549006849688C
:100A0000044AC1F30221515CC840704740000020F5
:100A100000100240403C000804480549006849684D
:100A2000044AC1F3C221515CC84070474000002015
:100A300000100240403C000812A185B00FC98DE8AB
:100A40000F0014A0144A006804905168134801F084
:100A50000C03042B10D0082B0ED1C1F38343C90320
:100A60001DF803000AD5516804AAC1F34041515C46
:100A70000A4A5043B0FBF1F005B0704708494843BB
:100A8000FAE7000002030405060708090A0B0C0D2B
:100A90000E0F1010010200000010024000127A0038
:100AA00000093D002DE9F84F040070D02078C04DBA
:100AB000C00749D06868C0F38100012807D0686882
:100AC000C0F38100022809D16868C00306D52868F0
:100AD000800339D560680028E7D035E06068B0F55C
:100AE000803F0BD010B1B0F5A02F11D0286820F4B2
:100AF00080302860286820F4802002E0286840F4D4
:100B000080302860606890B1FFF730FE06460AE04A
:100B1000286840F480202860F0E700BFFFF726FE39
:100B2000801B642873D828688003F7D50CE0FFF792
:100B30001DFE064605E000BFFFF718FE801B642877
:100B4000F0D828688003F7D420789A4E80074FF0B9
:100B500001094FF0000839D5686810F00C0F07D074
:100B60006868C0F38100022809D16868C00306D410
:100B70002868800714D52069012808D110E0206971
:100B8000B0B1C6F80090FFF7F1FD074605E00AE1B5
:100B9000FFF7ECFDC01B0228C4D828688007F7D5F2
:100BA0002868616920F0F80040EAC10028600DE083
:100BB000C6F80080FFF7DAFD074604E0FFF7D6FD30
:100BC000C01B022823D828688007F7D420780007A4
:100BD0002CD57948A169D9B1C0F80090FFF7C6FDBE
:100BE000074604E0FFF7C2FDC01B02280FD8686A61
:100BF0008007F7D571484FF4FA510068B0FBF1F067
:100C0000009000BF0098411E0091FAD20EE080E0F3
:100C1000C0F80080FFF7AAFD074604E0FFF7A6FD35
:100C2000C01B022875D8686A8007F7D4207840076F
:100C300060D5E8690027C00008D4E86940F080501A
:100C4000E861E869012700F0805000905C48016885
:100C5000C90513D40168834641F480710160FFF730
:100C600085FD824606E000BFFFF780FDA0EB0A008D
:100C700064284ED8DBF80000C005F5D5E0680128EF
:100C80000AD008B1052813D0286A20F00100286294
:100C9000286A20F0040002E0286A40F0010028627F
:100CA000E06841F2883B98B1FFF760FD82460BE0B7
:100CB000286A40F004002862EEE700BFFFF756FD07
:100CC000A0EB0A0159455AD8286A8007F6D50CE0EE
:100CD000FFF74CFD824605E0FFF748FDA0EB0A0157
:100CE00059454CD8286A8007F6D41FB1E86920F02E
:100CF0008050E861E06988B36968C1F38101022925
:100D000044D00228C6F8608004D0FFF72FFD0446C7
:100D100038E034E0FFF72AFD074604E0FFF726FD40
:100D2000C01B02282BD828688001F7D4206AB0F5B0
:100D3000803F05D16868A16820F4003008436860EE
:100D4000D4E908010843696821F474110843686014
:100D5000C6F86090FFF70AFD044606E025E000BFF4
:100D6000FFF704FD001B022809D828688001F7D589
:100D70001BE000BFFFF7FAFC001B022802D903208A
:100D8000BDE8F88F28688001F4D40EE00128F7D080
:100D90006868226A00F48031914204D1616A00F4EB
:100DA0007010884201D00120EAE70020E8E7000047
:100DB00000100240000042428004424240000020F5
:100DC0000070004010B5401EB0F1807F01D30120BB
:100DD00010BD4FF0E02460610F21601700F0C6FEE7
:100DE0000020A06107202061002010BD70477047DF
:100DF00070B590F83C20012A2CD0012480F83C40AA
:100E0000022280F83D2003685A689D6822F070062F
:100E10000A6832435A60104B02689A420ED00F4B58
:100E20009A420BD0B2F1804F08D00D4B9A4205D0B8
:100E30000C4B9A4202D00C4B9A4204D1496825F0DF
:100E400080031943916080F83D40002180F83C10F8
:100E5000084670BD022070BD002C014000340140E6
:100E60000004004000080040000C004010B50400E1
:100E700003D094F83D0010B107E0012010BD002020
:100E800084F83C00204600F01FF8022084F83D0062
:100E9000211D206800F0ECFC012084F8460084F855
:100EA0003E0084F83F0084F8400084F8410084F854
:100EB000420084F8430084F8440084F8450084F834
:100EC0003D00002010BD000008B501681048B1F1D8
:100ED000804F0BD00F4A914207D1C16941F0020106
:100EE000C161C06900F00200009008BDC16941F015
:100EF0000101C161C069002200F0010000901146AB
:100F00001C20FFF79FFCBDE808401C20FFF78CBCAD
:100F1000001002400004004090F83D10012901D06B
:100F200001207047022180F83D100168CA6842F034
:100F30000102CA6000680E4988420ED00D498842FD
:100F40000BD0B0F1804F08D00B49884205D00B4937
:100F5000884202D00A49884204D1816801F0070121
:100F6000062903D0016841F00101016000207047AB
:100F7000002C014000340140000400400008004003
:100F8000000C004070B5044690F83C00012817D0D2
:100F9000012584F83C50022084F83D0020688268D6
:100FA00022F0770222F47F4282600868502830D015
:100FB0000DDC20284DD005DC98B310283BD148E04B
:100FC000022070BD302844D0402834D139E0602858
:100FD00028D0702806D0B0F5805F2CD0B0F5005F27
:100FE00029D10AE0CB68D1E90121206800F086FC14
:100FF0002068816841F0770109E0CB68D1E90121DF
:10100000206800F07BFC2068816841F480418160A9
:1010100011E0CA684968206800F082FC502120680D
:1010200007E016E0CA684968206800F08AFC602181
:10103000206800F06DFC84F83D50002084F83C00EE
:1010400070BDCA684968206800F06AFC40212068C9
:10105000EFE7226801461046EBE7704770B504469B
:10106000006801694FF00005C943890715D4C168BC
:10107000C943890711D4E91E016101202077206846
:1010800080698007204602D0FFF7E7FF04E000F008
:1010900098F8204600F096F8257720680169C94342
:1010A000490717D4C168C943490713D46FF0040135
:1010B0000161022020772068806910F4407F20467B
:1010C00002D0FFF7CAFF04E000F07BF8204600F0F2
:1010D00079F8257720680169C943090716D4C168E2
:1010E000C943090712D46FF0080101610420207779
:1010F0002068C0698007204602D0FFF7AEFF04E0F9
:1011000000F05FF8204600F05DF82577206801695F
:10111000C943C90617D4C168C943C90613D46FF0BF
:1011200010010161082020772068C06910F4407F19
:10113000204602D0FFF791FF04E000F042F820467D
:1011400000F040F8257720680169C943C90708D134
:10115000C168C943C90704D1891E0161204600F056
:1011600033F820680169C943090609D4C168C94335
:10117000090605D46FF0800101612046FFF736FEB5
:1011800020680169C943490609D4C168C9434906B1
:1011900005D46FF040010161204600F025F8206879
:1011A0000169C94389060BD4C168C943890607D4BC
:1011B0006FF0200101612046BDE87040FFF717BEC7
:1011C00070BD704770470000054910B5884206D1D0
:1011D000044802F0AFFABDE8104001F05BBF10BD5B
:1011E000B00100202C0000207047704770B50268E5
:1011F00004461068D168536910F00F0F52D003F005
:10120000010501F490762E435FD0C20705D0CA05D0
:1012100003D5E26B42F00102E263420705D5DA072B
:1012200003D0E26B42F00202E263820705D5DA07DF
:1012300003D0E26B42F00402E263020707D501F03B
:1012400020022A4303D0E26B42F00802E263E26B21
:10125000002A33D0800604D5880602D5204600F047
:1012600098FB20684069E16BC0F38010090700D447
:1012700028B3204600F07FFB2068416949061AD553
:10128000416921F040014161606BA0B12D4941638A
:10129000606BFFF7CDF8002810D0606B416BBDE8A4
:1012A00070400847830610D58B060ED52046BDE852
:1012B000704000F06EBB2046FFF797FF70BD2046E0
:1012C000FFF793FF0020E06370BD03062BD50B06EC
:1012D00029D594F839002128F6D1A068B0F5805FAF
:1012E00001D12069B0B1206A411C216221680078D7
:1012F0004860E08C401E0004000CE084E4D12068CB
:10130000C16821F08001C1602068C16841F04001DE
:10131000C16070BD206A0088C0F308005060206A78
:10132000801C2062E5E74006F3D54806F1D5D16878
:10133000204621F04001D160202184F8391000F0CE
:1013400055F970BD6719000870B5040004D094F811
:101350003900002510B106E0012070BD84F8385036
:10136000204600F023F8242084F839002068C16862
:1013700021F40051C160204600F052FB2068016951
:1013800021F4904101612068416921F02A01416105
:101390002068C16841F40051C160E563202084F8F1
:1013A000390084F83A00002070BD000070B586B0A6
:1013B000002400940194029403942B4E03682B495B
:1013C000022003222A4DB34221D18B6943F480438A
:1013D0008B618B6903F4804304938B6943F00403AE
:1013E0008B618969039201F0040104910102CDE946
:1013F000001069462846FFF7B3F82815CDE9000428
:10140000694628460294FFF7ABF806B070BD194E46
:10141000B342FAD1CB6943F40033CB61CB6903F417
:10142000003304938B6943F004038B618969039251
:1014300001F0040104910421CDE900106946284619
:10144000FFF78EF80820CDE900046946284602948B
:10145000FFF786F8002211462620FFF7F3F9262031
:10146000FFF7E2F9D1E70000003801400010024028
:10147000000801400044004090F83A30202B22D16F
:10148000F9B1F2B190F83830012B1CD0816282851D
:10149000C2850021C163222280F83A2080F83810EA
:1014A0000168CA6842F48072CA6001684A6942F001
:1014B00001024A610068C16841F02001C16000205A
:1014C00070470120704702207047000010B5006887
:1014D000074988420AD10121064801F045FDBDE8CF
:1014E0001040012203490448FFF7C6BF10BD0000A9
:1014F0000044004000000020800200202DE9F84355
:10150000044690F839001F4616460D4620284CD157
:10151000C5B1BEB194F83800012846D0012084F846
:1015200038004FF00008C4F83C80212084F83900CE
:10153000FFF71CF9A6848146E684A068B0F5805FB9
:1015400003D004E00120BDE8F883206928B12E46CD
:101550005FF0000584F838800EE00026FAE780216D
:10156000204600F0B9FAA0B9AEB116F8010B216817
:101570004860E08C401EE084E08C4B464FF0000257
:1015800000970028EBD14FF04001204600F0A4FA6C
:1015900030B10320D7E735F8020BC0F30800E6E7C7
:1015A000202084F839000020CDE70220CBE790F816
:1015B0003930202B18D1A9B1A2B190F83830012BC5
:1015C00012D001628284C2840021C163212280F88A
:1015D000392080F838100068C16841F08001C1608E
:1015E0000020704701207047022070477047FEE7D7
:1015F0002DE9F04385B000242D4800940194029415
:101600000394816941F020018161816901F0200129
:101610000491816941F004018161816901F0040153
:101620000491816941F008018161816901F008013B
:101630000491816941F0100181618069DFF8749043
:1016400000F010004FF4005504900022294648464F
:10165000FFF787F8DFF86080AF1000223946404678
:10166000FFF77FF80095032601250396CDE9015485
:1016700069464846FEF774FFA802CDE900046946B2
:1016800040460294FEF76CFF00970396CDE90154A3
:1016900069464046FEF764FF2020CDE90004694614
:1016A00048460294FEF75CFF05B0BDE8F0830000F9
:1016B00000100240000C01400010014010B586B03F
:1016C00000241648009401940294039404944FF06B
:1016D0008041059401603F21C0E9011440F2E731E7
:1016E000C0E903148461FFF7C1FB08B1FEF79DFE5A
:1016F0004FF48050009069460848FFF743FC08B15A
:10170000FEF793FE049404A904480594FFF770FBC8
:10171000002801D0FEF789FE06B010BDB001002000
:1017200010B586B0002417480094019402940394E5
:1017300004941349059401603F21C0E901144FF658
:10174000FF71C0E903148461FFF790FB08B1FEF755
:101750006CFE4FF48050009069460A48FFF712FC77
:1017600008B1FEF762FE049404A906480594FFF749
:101770003FFB002801D0FEF758FE06B010BD000068
:1017800000040040F80100200C4810B50A4901602F
:101790004FF4E1314160002181600C22C160C0E959
:1017A00004128161C161FFF7CFFD002803D0BDE8BD
:1017B0001040FEF73ABE10BD003801404002002044
:1017C0000C4810B50A4901604FF4165141600021E0
:1017D00081600C22C160C0E904128161C161FFF720
:1017E000B3FD002803D0BDE81040FEF71EBE10BDBB
:1017F0000044004080020020FEE7FEE7704770478B
:10180000FEF7BABF30B58FB028216846FEF7D5FC89
:1018100014210AA8FEF7D1FC01210804CDE900102B
:101820000024029402250491CDE907504FF4C01022
:1018300009906846FFF736F908B172B6FEE70F2047
:10184000CDE90A054FF48060CDE90C4002210AA8D9
:101850000E94FFF73BF8002801D072B6FEE70FB0F8
:1018600030BD70470148FFF7F9BB0000B001002010
:10187000F0B502681C4B1D4D1D4E1E4F1E4C4FF007
:10188000804C984209D0A04207D0604505D0A842BC
:1018900003D0B04201D0B84204D122F0700E4A68A1
:1018A00042EA0E02984209D0A04207D0604505D016
:1018B000A84203D0B04201D0B84203D122F440750F
:1018C000CA682A434D6922F080022A4302608A686E
:1018D000C2620A688262984201D0A04201D10969BD
:1018E000016301214161F0BD002C01400004004072
:1018F00000080040000C00400034014010B584682E
:1019000042EA032224F47F440A432243826010BD4A
:10191000826822F070020A4342F00701816070473A
:1019200010B5036A046A24F001040462846924F097
:10193000F00444EA021423F00A020A4384610262BA
:1019400010BD10B5036A23F0100303628369046AB3
:1019500023F4704343EA023224F0A00343EA011166
:101960008261016210BD10B5406A0021C185C18449
:10197000FFF73BFC10BD0168CA6822F49072CA6090
:1019800001684A6922F001024A61202180F83A1078
:10199000704710B590F83A10222901D0022010BDEE
:1019A00082684FF480539A4201D1016921B1816A62
:1019B0009A421BD04AB10AE00268816A5268C2F3B7
:1019C00008020A80816A891C08E0026972B1026813
:1019D000526802F07F020A70816A491C8162C18DDF
:1019E000491E0904090CC18503D016E0026852683B
:1019F000F1E70168CA6822F02002CA600168CA687B
:101A000022F48072CA6001684A6922F001024A61C8
:101A1000202180F83A10FFF759FD002010BD00008A
:101A200070B5044600680169E26821F44051114331
:101A300001612169A0680843616908432168CA6897
:101A400041F20C639A430243CA6020684169A2696B
:101A500021F44071114341611E492068884202D13E
:101A6000FEF7DAFF01E0FEF7C7FF00EBC00101EB74
:101A70000012606864218000B2FBF0F3B3FBF1F365
:101A80006FF018067343B2FBF0F5B2FBF0F605EB0E
:101A90008305322303EB0515B5FBF1F5B6FBF1F633
:101AA00005F0F00505EB0615B2FBF0F6B2FBF0F021
:101AB000B0FBF1F06FF01802504306EB800003EB2F
:101AC0000010B0FBF1F0216800F00F00284488609E
:101AD00070BD0000003801402DE9F04198461746DE
:101AE0000E460446069D1DE0681C1BD02DB1FEF776
:101AF0003DFEA0EB0800A84214D92068C16821F47B
:101B0000D071C1602068416921F00101416120204C
:101B100084F8390084F83A00002084F83800032063
:101B2000BDE8F0812068006836EA000004D000209B
:101B3000B842D9D00020F3E70120F9E70148FFF7C8
:101B400055BB000080020020FEE700000FB4054BEB
:101B500010B503A9044A029800F028F810BC5DF8FB
:101B600014FB000069200008440000200907090E4A
:101B7000002804DB00F1E02080F80014704700F03A
:101B80000F0000F1E02080F8141D704702E008C843
:101B9000121F08C1002AFAD170477047002001E0E7
:101BA00001C1121F002AFBD1704700002DE9FF4F31
:101BB0008DB00F460546002606E025280BD0DDE94E
:101BC0000F1290476D1C761C28780028F5D111B0B3
:101BD0003046BDE8F08F0024A246A1460122EC4920
:101BE00000E0044315F8013F203B02FA03F00842ED
:101BF000F7D128782A2810D06FF02F022878A0F18A
:101C00003001092914D80AEB8A0102EB410144F0A2
:101C1000020400EB010A6D1CF0E701CF5FEA000A45
:101C200003D544F40054CAF1000A44F002046D1CC8
:101C300028782E2817D115F8010F44F004042A281B
:101C40000ED06FF02F022878A0F1300109290AD8B0
:101C500009EB890102EB410100EB01096D1CF2E780
:101C600057F8049B6D1C28786C280FD006DC4C2894
:101C700017D068280DD06A2814D104E0742810D039
:101C80007A280FD10DE044F400140AE044F48014E3
:101C900001E044F440146978814202D104F58014D3
:101CA0006D1C6D1C2A786E2A1FD00CDC632A31D083
:101CB00004DC002A8BD0582A11D1A3E0642A68D012
:101CC000692A0CD165E0732A2ED004DC6F2A73D008
:101CD000702A04D19BE0752A6FD0782A6ED0104606
:101CE000DDE90F129047761C50E1C4F30250022840
:101CF00006D0032809D0042801CF09D0066045E1A9
:101D000001CFF117C0E9006140E101CF06803DE15C
:101D100006703BE117F8040B8DF8000000208DF8E9
:101D20000100EB46012003E057F804BB4FF0FF3001
:101D300061074FF0000102D40DE008F1010188466F
:101D400049450FDA8045F8DB1BF808100029F4D16B
:101D500008E008F1010188468142FADB1BF808100F
:101D60000029F6D1DDE90F23AAEB080081462146C0
:101D700000F036F9304400EB080604E0DDE90F120C
:101D80001BF8010B9047B8F10108F7D221464846ED
:101D9000F7E00A21C4F302534FF0000B0891022B25
:101DA00004D001CFC117032B09D00AE0FF1D27F093
:101DB0000707F7E8020108E032E01FE020E000B288
:101DC000C117042B01D140B2C117031E71F10003EA
:101DD00007DA4FF0000CD0EB0C006CEB01012D2367
:101DE00002E0230504D52B238DF82430012303E0E2
:101DF000E30701D02023F7E7984658E00A2110E0D6
:101E000010210EE010204FF0000B08900CE0102184
:101E10004FF0000B44F004044FF00809089103E070
:101E200008214FF0000B0891C4F30253022B04D099
:101E300001CF0021032B06D006E0FF1D27F0070786
:101E4000F7E8020103E080B2042B00D1C0B24FF0EA
:101E5000000823072BD5702A07D0DDF820C08CF0AE
:101E6000100C5CEA0B0C05D00EE040238DF82430FA
:101E7000012308E050EA010306D030238DF8243016
:101E80008DF8252002239846DDF820C08CF0080C40
:101E90005CEA0B0C0BD150EA010301D1630706D5B4
:101EA00030238DF824304FF00108A9F10109582A98
:101EB00004D038A20B9208AA0A920BE03AA2F9E7E2
:101EC0005B46089AFEF784F90B9B9B5C0A9A521EAC
:101ED0000A92137050EA0102F2D10A98ADEB0000A9
:101EE00000F1200B600702D524F4803401E04FF0AC
:101EF0000109D94502DDA9EB0B0000E0002000EB51
:101F00000B0141440890AAEB010AE00306D4DDE985
:101F10000F232146504600F063F806444FF00009B5
:101F200008E009A911F80900DDE90F12904709F14D
:101F30000109761CC145F4DBE0030CD5DDE90F2374
:101F40002146504600F04CF8064404E0DDE90F124B
:101F500030209047761C0899481E08900029F5DC2F
:101F600008E00A980A990078491C0A91DDE90F12E5
:101F70009047761CBBF10001ABF1010BF1DC21466F
:101F80005046DDE90F2300F019F806446D1C1BE6EE
:101F9000092801003031323334353637383961623F
:101FA0006364656600000000303132333435363703
:101FB0003839414243444546000000002DE9F041D4
:101FC000044600251E461746880404D405E0394619
:101FD0002020B0476D1C641EF9D52846BDE8F0816D
:101FE0002DE9F041044600251E469046C80301D560
:101FF000302700E02027880404D505E04146384614
:10200000B0476D1C641EF9D52846BDE8F08142F248
:10201000283148434FF0E0214861002088610122C7
:102020000A610A69D30701D0D203FAD50861886131
:10203000704700EBC0014FF0E02041610021816159
:10204000012202610269D30701D0D203FAD50161EE
:1020500081617047014600200A0A62F3070061F3BC
:102060000F20704700BA704713B54FF6FF73012277
:1020700069460248FFF742FA00981CBD4002002062
:102080002DE9F0470024804626464FF00109114F04
:102090001AE000BFC4EBC40101EB4105D8F8010010
:1020A00005F1090101446A1D0988104489B20068DC
:1020B000FEF752FB30B9D8F80100415D09FA01F092
:1020C000304386B2641CE4B23878A042E2D830468D
:1020D000BDE8F0872C0000202DE9F0470E460700F0
:1020E0004FF0000422D00EB300F0ECF80546306843
:1020F0003968DFF8548041F27079884208D0D8F806
:102100000800291A494503D310A0FFF71FFD012439
:1021100070687968884210D0D8F80800291A4945B3
:102120000BD30FA0FFF712FD012407E011A0FFF76A
:102130000DFD4FF0FF30BDE8F0871CB100F0C2F894
:10214000C8F808002046F6E71000002076616C759C
:102150006554656D70204368616E6765640A0000B0
:1021600076616C756553686964204368616E676564
:10217000640A000067697A436865636B5265706F33
:102180007274204572726F72202C20496C6C6567E6
:10219000616C20506172616D0A00000070B50C46E0
:1021A00005000ED06CB12A680021012000F07AFFF2
:1021B00020706A680021012000F074FF6070002028
:1021C00070BD03A0FFF7C2FC4FF0FF3070BD0000F0
:1021D00067697A44617461506F696E7473325265D5
:1021E000706F727444617461204572726F72202C3A
:1021F00020496C6C6567616C20506172616D0A00EA
:102200002DE9F041054600F05DF804461E492846D8
:10221000FFF762FF1C4E293E06F11F08012812D16C
:102220001AA0FFF793FC41462846FFF7B7FF20B9F5
:1022300002224146042000F0CBFE2868C6F829009F
:102240006868C6F82D001748B4FBF0F100FB114098
:10225000002816D1144FF868A04212D013A0FFF73F
:1022600075FC41462846FFF799FF20B902224146F6
:10227000042000F0ADFE286846F8290F68687060F9
:10228000FC60BDE8F0810000F10000206368616E31
:102290006765642C207265706F727420646174616C
:1022A0000A000000C027090010000020496E666F78
:1022B0003A2036303053207265706F72742064613A
:1022C00074610A0001484068704700000000002067
:1022D00010B5134C94F83A00012819D194F839003C
:1022E000022816D2FFF7EEFFD4F85310401AC82880
:1022F0000ED9FFF7E7FF14F8393F0146D4F81A204A
:1023000008A0FFF723FC00F08FFD2078401C207010
:1023100010BD03481E21BDE810403930FDF74DBF08
:10232000480000205761726E696E673A67697A509B
:10233000726F746F636F6C526573656E6444617421
:10234000612025642025642025640A003EB5F8B18B
:1023500001680091406801909DF80400401C8DF8D0
:1023600004000520FFF776FEADF80200092168465B
:1023700000F094FD8DF808000921684601F0E6FBA5
:10238000040003D5014605A0FFF7E0FB20463EBD53
:1023900009A0FFF7DBFB4FF0FF303EBD4552523A3C
:1023A0002075617274207772697465206572726F2E
:1023B00072202564200A00004552523A2067697A4B
:1023C00050726F746F636F6C436F6D6D6F6E4163AE
:1023D0006B206461746120697320656D707479206D
:1023E0000A0000003EB50D46040021D0684600F00A
:1023F000B5F912208DF8040060798DF805000620EB
:10240000FFF728FEADF802008DF808500A21684653
:1024100000F044FD8DF809000A21684601F096FBA2
:10242000040003D5014605A0FFF790FB20463EBD02
:1024300009A0FFF78BFB4FF0FF303EBD4552523AEB
:102440002075617274207772697465206572726F8D
:1024500072202564200A000067697A50726F746FD9
:10246000636F6C4572726F72436D64204572726F58
:1024700072202C20496C6C6567616C205061726120
:102480006D0A000010B59EB004004FD0684600F001
:1024900065F902208DF8040060798DF8050026A00A
:1024A0002022D0E90010CDE9021026A1D1E90001D7
:1024B000CDE9040126A0D0E90010CDE9081027A13C
:1024C000D1E90001CDE9060127A10AA8FDF75CFECC
:1024D00020222EA10DF15200FDF756FE0020CDF86E
:1024E0004A00CDF84E009DF8510040F002008DF8F2
:1024F00051000020FFF7AEFDADF848006F20FFF758
:10250000A9FDADF802007321684600F0C7FC8DF804
:1025100072007321684601F019FB040003D50146DF
:1025200023A0FFF713FB20461EB010BD27A0FFF726
:102530000DFB4FF0FF30F7E73030303030303034C3
:102540000000000030303030303030320000000009
:102550003033303330303030000000003033303131
:102560003031303000000000643937613235356178
:102570003266643834323735613737383861306124
:102580006363333536353234000000003566613719
:102590003632633532353734346135306165623413
:1025A000356337323564306239626565000000009A
:1025B0004552523A207561727420777269746520B1
:1025C0006572726F72202564200A000067697A5074
:1025D000726F746F636F6C47657444657669636589
:1025E000496E666F204572726F72202C20496C6CA8
:1025F0006567616C20506172616D0A002DE9F84FCA
:102600004FF0000690460C465FEA000A35464FF050
:10261000FF390ED06CB1B8F1000F0AD0504601F06E
:1026200084F910F0FF0707D04FF0FF0BDFF8F890A8
:1026300055E03EA0FFF78AFA4846BDE8F88F012230
:102640006946504601F0A7F9F0B399F80100FF2858
:1026500005D19DF80000FF2807D0552833D099F800
:102660000010484601291BD02DE099F8001048467B
:1026700061B18188042926D9A94224D084F800B008
:1026800084F801B00221A9F804101CE084F800B01D
:1026900084F801B002218180012189F8001012E044
:1026A00080889DF800202254401C80B2A9F80400C4
:1026B000042808D96088FFF7CDFC001D85B2B9F861
:1026C0000400A8420DD000E008E09DF8001089F851
:1026D000011099F80210491C89F80210761CBE42BC
:1026E000ADDBB9F804104E4604291AD9A94218D115
:1026F000204600F0D3FBB288A11811F8011C8142DA
:102700000CD121462A460846FDF73EFDA8F80050A8
:1027100000203070B080B07070708EE76FF00100F4
:102720008BE7012089E700001000002067697A50DC
:10273000726F746F636F6C4765744F6E6550616341
:102740006B6574204572726F72202C20496C6C6529
:1027500067616C20506172616D0A000010B538B17C
:10276000002101604160FF2101704170002010BD17
:1027700002A0FFF7EBF94FF0FF3010BD4552523A7F
:102780002067697A50726F746F636F6C486561641B
:10279000496E6974206865616420697320656D7095
:1027A0007479200A000000002DE9F0438BB09846B0
:1027B00017465FEA010906464FF0000525D0B8F13B
:1027C000010F2AD0781D84B223462A46394628A014
:1027D000FFF7BCF9FF208DF800008DF80100200AFA
:1027E0008DF802008DF803403079401C8DF804000C
:1027F00070798DF8050000208DF8060008208DF80E
:102800000780B8F1010F0CD016E023A0FFF79EF966
:102810004FF0FF300BB0BDE8F083357AE819801D2A
:10282000D1E78DF808502A4606F109010DF109009B
:10283000FDF7AAFC05F109006D4627B128443A4688
:102840004946FDF7A1FC211D684600F027FB291928
:10285000C870211D684601F079F9010005D514A062
:10286000FFF774F96FF00100D4E70020D2E7000011
:102870006C656E203D202564202C20734469644CD7
:10288000656E203D202564202C646174615F6C6559
:102890006E203D2025640A005B4552525D20206475
:1028A000617461204973204E756C6C200A00000031
:1028B00075617274207772697465206572726F72C7
:1028C000202564200A0000002DE9F0470F00089C35
:1028D00097F800801E4615464FF0FF3A03D016B118
:1028E0000CB120B12BE023A0FFF730F91AE0122140
:1028F0002C48FDF762FC40464FF00009B8F1010F8B
:1029000006D04FF00308022805D0052817D118E09B
:10291000C4F8009013E02349483101F10A00FFF7A1
:102920003DFC10B15046BDE8F0871E482930B0F894
:102930001F00A6F8010086F80080C4F8008000207F
:10294000F1E718486A1E791C4038FDF71DFC154850
:102950006D1E57381349C0F82D5010F8573F491CC9
:1029600010225A5410F81F19491CC17700F8388CEE
:10297000CEE7000067697A50726F746F636F6C49BD
:10298000737375656450726F6365737320457272FB
:102990006F72202C20496C6C6567616C20506172ED
:1029A000616D0A009F0000202DE9F041060031D042
:1029B0003089FFF74FFB8C4F30818C4C38784FF0CB
:1029C0000208C0F38001307A04F16A05C0F3800286
:1029D000914241D042074FF000014FEAC07020D52C
:1029E00050B194F86900415594F86900401C84F88E
:1029F00069007FA0FFF7AAF8307A80072CD594F8F9
:102A000069100120485594F86900401C84F8690059
:102A10007FA01FE085A0FFF799F84FF0FF30BDE8D9
:102A2000F08150B194F86900415594F86900401C58
:102A300084F869006EA0FFF789F8307A80070BD51B
:102A400094F8691001F8058094F86900401C84F836
:102A5000690082A0FFF77AF83878317AC0F3C003B2
:102A6000C1F3C00293421BD062F3C3003870080761
:102A70000AD594F869100320485594F86900401C61
:102A800084F869007CA009E094F869100420485596
:102A900094F86900401C84F869007FA0FFF756F89D
:102AA0003878317AC0F30013C1F3001293421BD07F
:102AB00062F304103870C8060AD594F8691005202E
:102AC000485594F86900401C84F869007AA009E030
:102AD00094F869100620485594F86900401C84F861
:102AE00069007DA0FFF732F83978307AC1F34013DE
:102AF000C0F3401293421BD062F345113970800637
:102B00000AD594F869100720485594F86900401CCC
:102B100084F8690079A009E094F869100820485504
:102B200094F86900401C84F869007BA0FFF70EF858
:102B30007878717AC0F3C003C1F3C00293421BD00E
:102B400062F3C300787008070AD594F869100B2067
:102B5000485594F86900401C84F8690076A009E0A3
:102B600094F869100C20485594F86900401C84F8CA
:102B7000690078A0FEF7EAFF7878727AC0F3001354
:102B8000C2F300118B421BD061F304107870D006A1
:102B90000AD594F869100920485594F86900401C3A
:102BA00084F8690073A009E094F869100A20485578
:102BB00094F86900401C84F8690075A0FEF7C6FF10
:102BC00014F8691F0D2048552078401C2070707A39
:102BD00000F0070184F8481074A0FEF7B7FF04F86E
:102BE000698C00201BE70000160000204800002030
:102BF0004F6E426F617264696E673A20536F6674FC
:102C00004150206F7220576562206D6F64650A0025
:102C10004F6E426F617264696E673A204169724C0F
:102C2000696E6B206D6F64650A00000067697A50F9
:102C3000726F746F636F6C4D6F64756C6553746104
:102C4000747573204572726F72202C20496C6C650C
:102C500067616C20506172616D0A00004F6E426FB7
:102C6000617264696E673A2053746174696F6E2093
:102C70006D6F64650A0000005769466920737461CE
:102C80007475733A20696E2062696E64696E67209C
:102C90006D6F64650A0000005769466920737461AE
:102CA0007475733A206F75742062696E64696E671B
:102CB000206D6F64650A000057694669207374616E
:102CC0007475733A20636F6E6E6563746564207209
:102CD0006F757465720A00005769466920737461E4
:102CE0007475733A20646973636F6E6E656374659F
:102CF0006420726F757465720A0000005769466936
:102D0000207374617475733A20636F6E6E656374BB
:102D10006564206D326D0A005769466920737461DD
:102D20007475733A20646973636F6E6E656374655E
:102D300064206D326D0A0000576946692073746122
:102D40007475733A2061707020636F6E6E65637482
:102D50000A00000057694669207374617475733AFC
:102D6000206E6F2061707020636F6E6E6563740AF1
:102D70000000000057694669207374617475733AE6
:102D800020696E2074657374206D6F64650A00009D
:102D900057694669207374617475733A206F75744E
:102DA0002074657374206D6F64650A005253534933
:102DB000206973202564200A0000000010B508B3C4
:102DC00013498268124C41F8322FC2684A60028A65
:102DD0000A81807C803C8872B4F8B2007634FFF7B8
:102DE00039F9A087606CFFF73DF960646279A01D36
:102DF0000E2111546079401C6071042004F8760C97
:102E0000002010BD03A0FEF7A1FE4FF0FF3010BD63
:102E1000C80000204552523A204E54502069732079
:102E2000656D707479200A0010B50D4C94F83A0065
:102E3000002813D00BA0FEF789FEB4F8511004F15E
:102E40003B0000F083FEB4F85110814202D00DA087
:102E5000FEF77CFEFFF736FAC4F8530010BD000001
:102E6000480000205761726E696E673A2074696D80
:102E7000656F75742C20726573656E64206461746F
:102E800061200A004552523A20726573656E6420D3
:102E900064617461206572726F720A0010B503007C
:102EA0004FF0000003D011B10222491E05E00020BE
:102EB00010BD9C5C521C2044C0B28A42F9D310BDA4
:102EC00070B50C46050016D01E210E48FDF775F9A9
:102ED0000C4822462946801CFDF756F9094D012071
:102EE000393DA5F8514085F83A003B35FFF7EAF93E
:102EF000A861002070BD04A0FEF728FE4FF0FF304F
:102F000070BD0000810000204552523A2064617477
:102F10006120697320656D707479200A00000000DB
:102F200010B50A4958B109790079491C814204D188
:102F300006481E21801EFDF740F9002010BD04A0A8
:102F4000FEF704FE4FF0FF3010BD000083000020AC
:102F50004552523A206461746120697320656D7036
:102F60007479200A0000000070B50C464FF0FF3560
:102F700060B10A460146064800F04CFDA04204D06C
:102F800004A000BFFEF7E2FD284670BD08A0F9E7E7
:102F9000470100204552523A204661696C65642021
:102FA000746F2072625772697465200A0000000015
:102FB0004552523A2067697A5075744461746120B1
:102FC00062756620697320656D707479200A00004F
:102FD000FEB516460C0005462CD06846FFF7BEFB32
:102FE00005208DF80400194850F8313F8DF8053060
:102FF0005B1C03608DF808500820FFF72BF8ADF834
:103000000200324621460DF10900FDF7BDF80C2102
:103010006846FFF743FF8DF80B000C21684600F06F
:1030200095FD04000CD5014609A0FEF78FFD6FF059
:103030000100FEBD0DA0FEF789FD4FF0FF30FEBD83
:103040000C216846FFF73CFF2046FEBD48000020EB
:103050004552523A20756172742077726974652006
:103060006572726F72202564200A000067697A52C7
:1030700065706F727444617461204572726F722062
:103080002C20496C6C6567616C20506172616D0A1F
:103090000000000002484168491C41607047000080
:1030A00000000020511AB1FBF0F070477FB5060018
:1030B0004FF000050C4601D0002C32D14FF0FF300C
:1030C00004B070BD70194078112828D2DFE800F0F4
:1030D0002727272727272727272727272709101DBF
:1030E0000C00217811A018E013A0FEF72FFD16E0C8
:1030F0002079A2796179A3688DE80F00E378A2783E
:10310000218812A0FEF722FD09E01BA0FEF71EFD9C
:103110001EA0FEF71BFD217820A0FEF717FD6D1CF9
:10312000EDB23078A842CDD80020C9E752535349B8
:103130002025640A000000005452414E5350415271
:10314000454E545F44415441200A000057494649C6
:103150005F4E5450203A205B25642D25642D256454
:1031600020253032643A253032643A253032645DAD
:103170005B25645D200A00004D4F44554C452049B5
:103180004E464F202E2E2E0A0000000057494620A2
:103190004D4F44554C45202E2E2E0A006D6F647500
:1031A0006C6554797065203A205B25645D200A00C7
:1031B0002DE9F0474FF000058EB05FEA000A2E4679
:1031C000ADF80450A9462F4602950ED0FFF780F8BF
:1031D000834C01AA611C04F1FF00FFF70FFA04F110
:1031E000BE0850B1801C70D0AEE07EA0FEF7AEFCF1
:1031F0004FF0FF300EB0BDE8F08784A0FEF7A6FCCC
:10320000FFF760F80146BDF8042085A0FEF79EFC9C
:1032100006E06019417887A0FEF798FC6D1CADB2FE
:10322000BDF804008542F4D384A0FEF78FFC6079DA
:10323000651C0F284ED00ADC0E2816D2DFE800F0FD
:10324000151B151F1515463A15154615463E182827
:1032500059D006DC112877D014284FD0162804D175
:1032600034E0222857D02A2830D002212846FFF700
:10327000B9F873A066E02846FFF704F964E0EA793C
:10328000A97975A0FEF762FC02A80090BDF80400C1
:10329000E119C21B03AB48460931093AFFF714FB99
:1032A000002851D1EB7903A92846029AFFF77CFA4E
:1032B0006DA047E02846FFF749F845E02846FFF7AC
:1032C00045F82846FFF770FB3EE047E02846FFF749
:1032D00027FE39E02846FFF739F866A0FEF736FCEE
:1032E000FEF7F0FF05464FF4167700BFFEF7EAFF42
:1032F000401BB842FAD900F013FB25E02846FFF73F
:103300000FFE61A01EE02846FFF70AFE2846FFF7E1
:1033100055FD65A016E02846FFF702FE412205F1A3
:1033200008014046FCF730FF2D4894F88D208E3080
:103330000F21115494F88D00401C84F88D00052055
:1033400020705FA0FEF702FC254D20785735062837
:103350002BD2DFE800F02A0D17222F3A601C012142
:10336000FFF740F85DA0FEF7F1FB6FF0010041E7C9
:103370001B4926700822A1312846FFF797FE12212B
:10338000284607E016490122B1312670A1F1480014
:10339000044616E0FCF711FF07E011492670D4F847
:1033A0002D2017312846FFF781FE5046FEF728FFF3
:1033B00000201FE70A492670B231A1F137000C2224
:1033C0000446FFF773FE122108E0054826708D3091
:1033D000412241460446FFF769FE41212046D9E7D4
:1033E0004800002047697A7769747348616E646C9D
:1033F00065204572726F72202C20496C6C65676184
:103400006C20506172616D0A0000000047657420F5
:103410004F6E65205061636B6574210A00000000E7
:1034200057694669324D43555B2534643A25346407
:103430005D3A200025303278200000000A000000AC
:103440004552523A20636D6420636F646520657253
:10345000726F72210A000000666C61672025782077
:103460002578200A0000000041636B4461746120EC
:103470003A200A007265706F72743A4D435520729B
:1034800065626F6F74210A0041636B2050524F4494
:10349000554354494F4E5F4D4F4445207375636308
:1034A000657373200A00000041636B204745545F39
:1034B0005554542073756363657373200A000000CC
:1034C00041636B204745545F4D6F64756C65207395
:1034D000756363657373200A000000004552523A19
:1034E00020636865636B2073756D206572726F72FF
:1034F000210A00000B4810B52C21016000F11001D9
:10350000C16000F03FFA50B107A000BFFEF71EFBFC
:103510000448FF21BDE81040FF38FCF74EBE07A06D
:10352000F4E7000047010020726243726561746530
:10353000204661696C64200A0000000072624372D8
:10354000656174652053756363657373200A0000B9
:10355000F0B506460025364C092787B0062E60D206
:10356000DFE806F0030D0D35555A6846FFF7F6F80B
:103570000B2030E001462FA0FEF7E8FA44E003A854
:10358000FFF7ECF88DF8107054F8310F8DF811003A
:10359000401C20608DF814600620FEF75BFDADF83E
:1035A0000E000A2103A8FFF779FC8DF815000A2107
:1035B00003A800F0CBFA050003D501461DA0FEF7D5
:1035C000C5FA0A210DF10C00FFF77AFC2CE06846E1
:1035D000FFF7C4F813208DF8040054F8310F8DF86C
:1035E0000500401C20600520FEF734FDADF8020008
:1035F00009216846FFF752FC8DF80800092168464A
:1036000000F0A4FA0500B5D409216846DCE7684655
:10361000FFF7A4F81520DEE76846FFF79FF829209A
:10362000D9E70BA0FEF792FA07B02846F0BD0000DC
:10363000480000204552523A20756172742077721A
:10364000697465206572726F72202564200A00001B
:103650004552523A204366674D6F64652065727229
:103660006F72210A0000000010B504A0FEF76EFA88
:10367000BDE810400020FFF76BBF00004B455931FB
:10368000205052455353204C4F4E47202C576966CB
:10369000692052657365740A0000000010B504A02B
:1036A000FEF754FABDE810400320FFF751BF0000B9
:1036B0004B455931205052455353202C50726F6462
:1036C000756374696F6E204D6F64650A00000000B9
:1036D00010B504A0FEF73AFABDE810400120FFF74C
:1036E00037BF00004B455932205052455353202CD0
:1036F000536F6674204150206D6F64650A000000AE
:1037000010B504A0FEF722FABDE810400220FFF732
:103710001FBF00004B455932205052455353204C97
:103720004F4E47202C4169724C696E6B206D6F645F
:10373000650A00002DE9F0410746002600F0B2F9C5
:10374000050034D0A8044FF0010413D415E000BFE5
:10375000D7F80120C6EBC60000EB4001535C04FA29
:1037600003F0284204D00D315018006800B18047A2
:10377000761CF6B23878B042EAD8280417D500266D
:1037800012E000BFD7F80120C6EBC60000EB4001F5
:10379000535C04FA03F0284204D011315018006839
:1037A00000B18047761CF6B23878B042EAD8BDE85E
:1037B000F081000000B589B014491548CDE9000139
:1037C0004FF48063134A002102A800F02FF815225D
:1037D00002A91148FCF7D8FC10491148CDE90001B5
:1037E0002023104A002102A800F020F80A481522E0
:1037F00002A91530FCF7C8FC0B490748C1F80100C5
:1038000009B008465DF804EB00F030B869360008EE
:103810009D3600080010014083010020D1360008C9
:1038200001370008000C01402C00002030B587B0A3
:10383000DDE90A45CDF801100B49CDF80520CDF89A
:103840000930CA78521CCA708DF80020CDF811508A
:10385000CDF80D400A78521C0A7015226946FCF713
:1038600093FC07B030BD000020000020002806D0E7
:103870000349097801700C2901D90C2101707047A6
:1038800020000020FCF780FFFDF7BCFFFDF7B0FE35
:10389000FDF714FFFDF744FFFDF776FFFDF790FFFE
:1038A00000F044F900F048F900F0BAF9FFF722FE01
:1038B000FFF780FF0DA0FEF749F9FCF72BFD104C38
:1038C0004FF4FA752846FEF7A2FB0D49491C481E25
:1038D000FCF764FD627821780AA0FEF737F900F062
:1038E00091F90E48FFF764FCECE700004D435520CA
:1038F000496E69742053756363657373200A000011
:103900002A00002054656D703D202564200A2C207B
:1039100048756D693D202564200A000008000020DC
:10392000012080F31388FCF7BFBF00B5010006D06B
:103930004A688868824205D14FF0000000BD4FF010
:10394000FF3000BD02D2A0EB020000BD084600F02F
:1039500013F84A688968511A401A00BD00B5010081
:1039600007D000F009F803460846FFF7DEFF181AF3
:1039700000BD4FF0FF3000BD08B1006870474FF048
:10398000FF30704720B1C1684160816000207047FE
:103990004FF0FF3070472DE9F041040015460F4607
:1039A0004FF0FF3020D0002F1ED06068A168884201
:1039B000204609D2FFF7B9FFA84203D82046FFF7F7
:1039C000B4FF0546616807E0FFF7D6FF6168E2686B
:1039D0008A1A801AA84209D92A463846FCF7D4FB2D
:1039E0006068284460602846BDE8F0812046FFF703
:1039F000C3FF6168E2688A1A861A32463846FCF7C5
:103A0000C3FBE0686060AA1BB9192046FFF7C3FF3B
:103A10003044E9E72DE9F04115460F46040008D08F
:103A20003FB1FFF79BFFA84206D86FF00100BDE849
:103A3000F0814FF0FF30FAE76168A068814229D831
:103A40002046FFF799FF0146A068E268821A8E1AA5
:103A5000B54212D82A463946FCF796FBA06828449E
:103A6000A0602046FFF788FF0146E068A268014495
:103A7000914200D1A0602846D9E732463946FCF78A
:103A800083FBE068A060AA1BB9192046FFF7C2FFBC
:103A90003044CCE72A463946FCF776FBA068284438
:103AA000E8E7000070B5204C012600252179491C6B
:103AB000C9B221711E2902D32571667002E06178B6
:103AC00001292ED16570FEF7DBFAA17831B1012909
:103AD00008D002290ED0032923D11FE008B320818A
:103AE000A6701EE02189884202D10220A07018E051
:103AF000A57016E02189884204D0A570E58041F4C4
:103B0000005070BDE188491C89B2E180642908D366
:103B1000E5800321A17040F4004070BD21898842F6
:103B2000E6D1002070BD0000200000200148FDF714
:103B3000F3B90000B0010020012202490248FDF75C
:103B40009BBC00000000002080020020F8B50500AA
:103B500021A00E4600684FF00004009001D01F4FD6
:103B60001BE04FF0FF30F8BD2919322301221B481A
:103B7000FDF7C4FC97F839002028FBD1022C0BD3A9
:103B8000285DFF2808D1012269461448FDF70FFD82
:103B900097F839002028FBD1641CB442E4D31048C4
:103BA000324641680FA0FDF7D1FF00240DE0295DEA
:103BB00011A0FDF7CBFF022C06D3285DFF2803D10F
:103BC00055210DA0FDF7C2FF641CB442EFD30CA039
:103BD000FDF7BCFF3046F8BD550000008002002014
:103BE000000000204D435532576946695B25346417
:103BF0003A2534645D3A20002530327820000000F8
:103C00000A0000000348017803480160034909786D
:103C1000416070472A000020080000202B0000208F
:103C2000024900208860C860704700000000002042
:103C3000000000000000000001020304060708095C
:103C40000000000001020304683C0008000000209E
:103C5000480000008C1B0008B03C00084800002011
:103C6000780600009C1B0008000000000000000017
:103C70000000000000000000000000000000000044
:103C80000000000000000000000000FF0000000035
:103C90000000000000000000000000000100000023
:103CA00010000000000000000024F40000000000EC
:0400000508000131BD
:00000001FF
